:020000040800F2
:10000000180500200101000827150008D70F000877
:1000100025150008990100080523000800000000CC
:100020000000000000000000000000007F1F00082A
:10003000B501000800000000C91E0008811F00086B
:100040001B0100081B0100081B0100081B01000820
:100050001B0100081B0100081B0100081B01000810
:100060001B0100081B0100081B0100081B01000800
:100070001B0100081B0100081B0100081B010008F0
:100080001B0100081B0100081B0100081B010008E0
:100090001B0100081B0100081B0100081B010008D0
:1000A0001B0100081B0100081B0100081B010008C0
:1000B0001B0100081B0100081B0100081B010008B0
:1000C0001B0100081B0100081B0100081B010008A0
:1000D0001B0100081B0100081B0100081B01000890
:1000E0001B0100081B0100081B010008DFF80CD0F1
:1000F00000F040F8004800473925000818050020A6
:100100000648804706480047FEE7FEE7FEE7FEE7B1
:10011000FEE7FEE7FEE7FEE7FEE7FEE7D51F000885
:10012000ED000008D2B201E000F8012B491EFBD21D
:1001300070470022F6E710B513460A4604461946F2
:10014000FFF7F0FF204610BD30B50B4601460020FA
:100150002022012409E021FA02F59D4205D303FA89
:1001600002F5491B04FA02F52844151EA2F101020A
:10017000F1DC30BD064C074D06E0E06840F00103BD
:1001800094E8070098471034AC42F6D3FFF7B2FF6B
:10019000F453000814540008FEE7000001B54FF4C2
:1001A000FA7301226946024800F086FC08BD00008F
:1001B000280000207047704770B5044600F004F92D
:1001C0000546601C02D004480078044400F0FCF8A6
:1001D000401BA042FAD370BD000000202DE9F84F6B
:1001E000DFF8B891002409F1040A0AF1040B234650
:1001F0000F270BF1040EC9E00125A5402A40AA42B1
:100200007DD1674ED1F804C0ACEB0608B44532D0BE
:1002100014DCBCF1030F3AD009DCBCF1000F2AD08A
:10022000BCF1010F1CD0BCF1020F31D11DE0BCF1BB
:10023000110F17D0BCF1120F2AD119E0B8F5881FA1
:1002400019D006DCB8F5803F15D0B8F5801F1FD156
:1002500011E0B8F5001F0ED0B8F5041F18D10AE060
:10026000CB6815E0CB681B1D12E0CB6808330FE0AC
:10027000CB680C330CE08B682BB1012B4FF00803DB
:1002800003D0456104E0042302E0056100E000239F
:10029000FF2A01D8064601E000F104064FEA840572
:1002A00001D9A5F12005D6F8008007FA05FC28EA57
:1002B0000C0803FA05F548EA0508C6F800804D6801
:1002C000ED0062D5374DAE6946F00106AE61AD690D
:1002D00024F0030605F001050095334D06EB050CEF
:1002E000DCF80850A607360F07FA06F825EA0805D5
:1002F000DFF8B880404503D14FF0000817E044E034
:10030000DFF8AC80404502D14FF001080FE0DFF884
:10031000A480404502D14FF0020808E0DFF8988041
:10032000404502D14FF0030801E04FF0040808FAFD
:1003300006F848EA0508CCF808804D68D9F800604E
:10034000ED034D4601D5164300E096432E604D68FF
:10035000DAF80060AD03554601D5164300E0964338
:100360002E604D68DBF80060ED025D4601D5164356
:1003700000E096432E604D68DEF80060AD027546E1
:1003800001D5164300E096432E60641C0D682A4692
:10039000E5407FF431AFBDE8F88F00000004014074
:1003A0000000111000100240000001400008014050
:1003B000000C014000100140001401400AB101612D
:1003C00070470904FBE7000001488068704700009F
:1003D0000000002002488168027811448160704763
:1003E00000000020074810B5016841F010010160CD
:1003F000032000F067F8002000F006F800F024F871
:10040000002010BD0020024070B50D4D04464FF491
:100410007A712878B1FBF0F00A490968B1FBF0F075
:1004200000F0F8FB48B9102C07D200222146501EDC
:1004300000F028F800206C6070BD012070BD000045
:10044000000000200C0000200C4808B5816941F034
:1004500001018161816901F001010091C16941F0EF
:100460008051C161C06900F080500090044841682B
:1004700021F0E06141F00071416008BD00100240D0
:1004800000000140F0B40E4B1B680C46C3F302237E
:10049000C3F10705042D00D90425191D072901D230
:1004A000002300E0DB1E012606FA05F1491E21406B
:1004B00099409E40761E16403143F0BC01F034BF97
:1004C0000CED00E0064900F0070208684FF6FF0354
:1004D000184040EA0220034A1043086070470000B9
:1004E0000CED00E00000FA052DE9F0470F4605008D
:1004F00061D0434E306800F00700B84209D230683E
:1005000020F0070038433060306800F00700B84240
:1005100051D128683B4C810712D5400703D560684C
:1005200040F4E06060602878000703D5606840F41C
:10053000605060606068A96820F0F0000843606067
:100540002878C00728D06868012810D021680228C0
:1005500010D0890700292EDA616821F003010143D8
:100560006160FFF731FF804641F288390DE0216874
:100570008903EFE78901EDE7FFF726FFA0EB08010C
:10058000494502D90320BDE8F0876068696800F03A
:100590000C00B0EB810FEFD1306800F00700B842DB
:1005A0000BD9306820F0070038433060306800F025
:1005B0000700B84201D00120E5E72878400705D5BB
:1005C0006068E96820F4E06008436060287800070C
:1005D00006D56068296920F4605040EAC100606077
:1005E00000F038F86168084AC1F30311515CC84053
:1005F0000649086006480068FFF706FF0020C2E7CA
:1006000000200240001002409C2600080C00002040
:10061000040000200448054900684968044AC1F301
:100620000221515CC84070470C00002000100240BD
:10063000AC2600080448054900684968044AC1F32B
:10064000C221515CC84070470C00002000100240DD
:10065000AC26000812A185B00FC98DE80F0014A0C8
:10066000144A006804905168134801F00C03042BED
:1006700010D0082B0ED1C1F38343C9031DF803002A
:100680000AD5516804AAC1F34041515C0A4A50435B
:10069000B0FBF1F005B0704708494843FAE70000A5
:1006A00002030405060708090A0B0C0D0E0F1010B3
:1006B000010200000010024000127A0000093D0013
:1006C0002DE9F84F040070D02078C04DC00749D004
:1006D0006868C0F38100012807D06868C0F3810012
:1006E000022809D16868C00306D52868800339D577
:1006F00060680028E7D035E06068B0F5803F0BD037
:1007000010B1B0F5A02F11D0286820F480302860F7
:10071000286820F4802002E0286840F480302860B7
:10072000606890B1FFF750FE06460AE0286840F482
:1007300080202860F0E700BFFFF746FE801B64289A
:1007400073D828688003F7D50CE0FFF73DFE064616
:1007500005E000BFFFF738FE801B6428F0D828684A
:100760008003F7D420789A4E80074FF001094FF0AC
:10077000000839D5686810F00C0F07D06868C0F31E
:100780008100022809D16868C00306D42868800760
:1007900014D52069012808D110E02069B0B1C6F84D
:1007A0000090FFF711FE074605E00AE1FFF70CFE97
:1007B000C01B0228C4D828688007F7D5286861695B
:1007C00020F0F80040EAC10028600DE0C6F8008083
:1007D000FFF7FAFD074604E0FFF7F6FDC01B02280D
:1007E00023D828688007F7D4207800072CD57948CB
:1007F000A169D9B1C0F80090FFF7E6FD074604E013
:10080000FFF7E2FDC01B02280FD8686A8007F7D502
:1008100071484FF4FA510068B0FBF1F0009000BF4E
:100820000098411E0091FAD20EE080E0C0F80080EE
:10083000FFF7CAFD074604E0FFF7C6FDC01B02280C
:1008400075D8686A8007F7D42078400760D5E869D2
:100850000027C00008D4E86940F08050E861E869EA
:10086000012700F0805000905C480168C90513D44E
:100870000168834641F480710160FFF7A5FD82465F
:1008800006E000BFFFF7A0FDA0EB0A0064284ED8E9
:10089000DBF80000C005F5D5E06801280AD008B1F2
:1008A000052813D0286A20F001002862286A20F069
:1008B000040002E0286A40F001002862E06841F28A
:1008C000883B98B1FFF780FD82460BE0286A40F034
:1008D00004002862EEE700BFFFF776FDA0EB0A01F7
:1008E00059455AD8286A8007F6D50CE0FFF76CFD09
:1008F000824605E0FFF768FDA0EB0A0159454CD898
:10090000286A8007F6D41FB1E86920F08050E861BA
:10091000E06988B36968C1F38101022944D00228E3
:10092000C6F8608004D0FFF74FFD044638E034E09D
:10093000FFF74AFD074604E0FFF746FDC01B02280B
:100940002BD828688001F7D4206AB0F5803F05D104
:100950006868A16820F4003008436860D4E90801A1
:100960000843696821F4741108436860C6F8609010
:10097000FFF72AFD044606E025E000BFFFF724FD4F
:10098000001B022809D828688001F7D51BE000BFAA
:10099000FFF71AFD001B022802D90320BDE8F88FDB
:1009A00028688001F4D40EE00128F7D06868226A34
:1009B00000F48031914204D1616A00F470108842E1
:1009C00001D00120EAE70020E8E700000010024023
:1009D00000004242800442420C00002000700040AF
:1009E00070B5040005D00025A56294F8510010B13F
:1009F00006E0012070BD84F85050204600F02EF82B
:100A0000022084F851002068016821F04001016053
:100A1000D4E901010843D4E9031211430843616991
:100A20000843218B01F400710843E1690843216AFE
:100A30000843A16A084321680860A069042101EA0B
:100A40001040216848602068C16921F40061C161DB
:100A50006565012084F85100002070BD00B585B0A7
:100A60000021009101910291039100680F49884291
:100A70001AD10F48816941F480518161816901F483
:100A800080510491816941F0040181618069694666
:100A900000F004000490A0200090022001900320A8
:100AA00003900448FFF79AFB05B000BD00300140F9
:100AB00000100240000801402DE9F84F044690F86C
:100AC000500000271D461646894601280DD04FF0DC
:100AD000010B84F850B0FFF777FC804694F8510082
:100AE000BA46012804D002278EE00220BDE8F88F24
:100AF000B9F1000F7DD0002E7BD0032084F8510087
:100B0000C4F854A0C4F83090A686E686C4F838A08D
:100B1000A4F83CA0A4F83EA0C4F844A0C4F840A0A7
:100B2000A068B0F5004F04D12068016841F480410D
:100B3000016020680168490603D4016841F0400162
:100B40000160E068B0F5006F606803D030B3012E3B
:100B500024D040E008B1012E1CD1206B2168008810
:100B6000C86006E020688168890709D5216B09887B
:100B7000C160206B801C2063E08E401EE08609E08F
:100B8000FFF722FCA0EB0800A84202D3681C01D0AA
:100B900031E07DB3E08E0028E4D11FE0206B2168B6
:100BA0000078087306E020688168890709D5216B01
:100BB00009780173206B401C2063E08E401EE086A4
:100BC00009E0FFF701FCA0EB0800A84202D3681C73
:100BD00001D010E075B1E08E0028E4D142462946EC
:100BE000204601F072F908B120206065A06820B1AC
:100BF00007E008E0FFE7032706E02068C168806897
:100C00000090606D00B1012784F851B084F850A0C5
:100C100038466BE710B5401EB0F1807F01D301204C
:100C200010BD4FF0E02460610F21601701F07CFBE4
:100C30000020A06107202061002010BD70B590F851
:100C40003C20012A19D0012400F83C4F02224270B6
:100C500050F83C3C5A689D6822F070060A68496862
:100C6000324325F0800529435A6050F83C2C9160AE
:100C7000447000210170084670BD022070BD000064
:100C800000B585B0002100910191029103910068A7
:100C90000F4988421AD10F48816941F010018161E2
:100CA0008069694600F010000490802000900220C6
:100CB000019003900848FFF791FA0848416821F431
:100CC000406141F0E06141F44061416005B000BD28
:100CD00000040040001002400010014000000140EC
:100CE00070B5044690F83C000D4601280DD0012651
:100CF00084F83C60022084F83D0042B1042A18D0F8
:100D0000082A2AD00C2A4DD139E0022070BD206873
:100D100001F0C8F92068816941F00801816120680B
:100D2000816921F004018161206881692A69114388
:100D300011E0206801F0DEF92068816941F400616A
:100D400081612068816921F4806181612068816905
:100D50002A6941EA0221816124E0206801F0F6F964
:100D60002068C16941F00801C1612068C16921F0B2
:100D70000401C1612068C1692A69114311E020683A
:100D800001F010FA2068C16941F40061C161206876
:100D9000C16921F48061C1612068C1692A6941EAA1
:100DA0000221C16184F83D60002084F83C0070BDE0
:100DB00010B5040003D094F83D0010B107E0012005
:100DC00010BD002084F83C00204600F00DF8022001
:100DD00084F83D00211D206801F020F9012084F8ED
:100DE0003D00002010BD000008B50068064988429B
:100DF00008D10648C16941F00201C161C06900F033
:100E00000200009008BD00000004004000100240F5
:100E100010B504460068012201F036F9094920683E
:100E2000884203D1416C41F40041416420688168EB
:100E300001F00701062903D0016841F001010160BA
:100E4000002010BD002C014070B5040004D094F8BF
:100E50003900002510B106E0012070BD84F838503B
:100E6000204600F023F8242084F839002068C16867
:100E700021F40051C160204601F0B6F920680169F3
:100E800021F4904101612068416921F02A0141610A
:100E90002068C16841F40051C160E563202084F8F6
:100EA000390084F83A00002070BD000030B585B0EC
:100EB0000024009401940294039400681449884229
:100EC00023D11448C16941F40031C161C16901F401
:100ED00000310491816941F00401816180690E4D06
:100EE00000F00400049004200090022001900320F0
:100EF000039069462846FFF771F90820CDE9000400
:100F0000694628460294FFF769F905B030BD000034
:100F10000044004000100240000801402DE9F84361
:100F2000044690F839001F4616460D46202850D139
:100F3000A5B19EB194F8380001284AD0012084F868
:100F400038004FF00008C4F83C80212084F83900B4
:100F5000FFF73AFAA6848146E68426E00120BDE840
:100F6000F883E08C401EE084A0684B46B0F5805FBB
:100F70004FF000024FF080012046009703D001F0AF
:100F80008FF9E8B90DE001F08BF9C8B9288821681C
:100F9000C0F308004860206908B16D1C05E0AD1C75
:100FA00003E0216815F8010B4860E08C0028D8D1D7
:100FB0004B46002240212046009701F071F908B10C
:100FC0000320CCE7202084F8390084F83880002002
:100FD000C5E70220C3E7FEE72DE9F04106464FF4DE
:100FE000A07700213B46F022084600F04BF9012291
:100FF00011020A48FFF7E2F900254FEA16280024FB
:101000004046FFF7CBF8F0B2FFF7C8F8641CBC42CB
:10101000F6D36D1CF02DF2D3BDE8F081000801403D
:1010200010B5144600F006F92046BDE8104000F067
:1010300073B9000070B57D4C012240212046FFF7B6
:10104000BDF9C820FFF7B8F8002240212046FFF77D
:10105000B5F9C820FFF7B0F8754D64150022214698
:101060002846FFF7ABF9C820FFF7A6F80122214672
:101070002846FFF7A3F9C820FFF79EF8362000F0B6
:1010800069F9002000F02CF93A2000F063F90520FE
:1010900000F026F9212000F05DF92A2000F05AF92D
:1010A000002000F01DF9002000F01AF9012000F0E6
:1010B00017F93F2000F014F92B2000F04BF9002025
:1010C00000F00EF9002000F00BF9002000F008F904
:1010D000EF2000F005F9B22000F03CF90C2000F000
:1010E000FFF80C2000F0FCF8002000F0F9F83320A5
:1010F00000F0F6F8332000F0F3F8B72000F02AF9FA
:10110000352000F0EDF8BB2000F024F91F2000F09E
:10111000E7F8C02000F01EF92C2000F0E1F8C22012
:1011200000F018F9012000F0DBF8C32000F012F9FC
:10113000122000F0D5F8C42000F00CF9202000F0B7
:10114000CFF8C62000F006F90F2000F0C9F8D02033
:1011500000F000F9A42000F0C3F8A12000F0C0F8CE
:10116000E02000F0F7F8D02000F0BAF8082000F0F6
:10117000B7F8112000F0B4F8082000F0B1F80C2006
:1011800000F0AEF8152000F0ABF8392000F0A8F818
:10119000332000F0A5F8502000F0A2F8362000F02F
:1011A0009FF8132000F09CF8142000F099F82920F3
:1011B00000F096F82D2000F093F8E12000F0CAF836
:1011C000D02000F08DF8082000F08AF8102000F000
:1011D00087F8082000F084F8062000F081F8062047
:1011E00000F07EF8392000F07BF8442000F078F819
:1011F000512000F075F80B2000F072F8162000F076
:101200006FF8142000F06CF82F2000F069F83120FE
:1012100000F066F8212000F09DF8112000F09AF807
:10122000BDE87040292000F095B80000000C014096
:101230000008014070B505460C462A2000F08AF8E7
:101240002E0A304600F04CF8E8B200F049F830467B
:1012500000F046F8E8B200F043F82B2000F07AF8EE
:10126000250A284600F03CF8E0B200F039F828469C
:1012700000F036F8E0B200F033F8BDE870402C2002
:1012800000F068B82DE9F04107461D4614460E46A9
:101290002A2000F05FF8002000F022F8F8B200F0F9
:1012A0001FF8641EC4F3072000F01AF8E0B200F043
:1012B00017F82B2000F04EF8002000F011F8F0B2E3
:1012C00000F00EF86D1EC5F3072000F009F8E8B233
:1012D00000F006F8BDE8F0412C2000F03BB800001B
:1012E00070B50B4C0546002240212046FFF766F8FA
:1012F000012211020748FFF761F82846FEF74EFF6A
:101300002046BDE8704001224021FFF757B8000099
:10131000000C01400008014070B50C4D044600224D
:1013200040212846FFF74AF8012211020848FFF73A
:1013300045F8200AFEF732FFE0B2FEF72FFF2846FD
:10134000BDE8704001224021FFF738B8000C014091
:101350000008014010B50446002240210648FFF76E
:101360002DF800224FF480710448FFF727F820463B
:10137000BDE81040FEF712BF000C0140000801401C
:101380002DE9F04186B00024244800940194029491
:101390000394816941F020018161816901F020019C
:1013A0000491816941F004018161816901F00401C6
:1013B0000491816941F010018161816901F010019E
:1013C0000491816941F0080181618069144F00F046
:1013D00008004FF440750490002229463846FEF775
:1013E000EDFFDFF84080002240214046FEF7E6FF97
:1013F0000095022601250396CDE901546946384639
:10140000FEF7ECFE4020CDE90005CDE90246694635
:101410004046FEF7E3FE06B0BDE8F0810010024052
:1014200000080140000C0140114810B50F4901604F
:101430004FF4827141604FF4004181600021C1602E
:101440004FF400720161C0E905120822C0E90721CA
:10145000416281620A21C162FFF7C2FA002803D00B
:10146000BDE81040FEF7A7BE10BD000000300140EF
:101470002800002010B58AB0002407941C2168467B
:101480000894FEF756FE18481649016040F22B11E9
:10149000C0E9011440F2E731C0E903148021816101
:1014A000FFF786FC08B1FEF786FE079407A90E48F1
:1014B0000894FFF7C3FB08B1FEF77DFE60200090A3
:1014C0004FF4FA70CDE901040422694606480494F9
:1014D000FFF706FC08B1FEF76EFE0348FFF7D0FBEE
:1014E0000AB010BD00040040800000200C4810B578
:1014F0000A4901604FF4E1314160002181600C2212
:10150000C160C0E904128161C161FFF79DFC002840
:1015100003D0BDE81040FEF74EBE10BD00440040B1
:10152000C0000020FEE77047FFF756BD2DE9F05FD1
:1015300081462B481E46DDF828B0838888464B45F7
:1015400002D3C188414504D2BDE8F05F25A000F078
:10155000DBBEB088410700D0012101EBD000203A6A
:10156000F1885043484331684FF0800A0F18002536
:1015700030E0002425E000BFABF57F41FF3939782A
:1015800004F007022AFA02F001EA000101D009B9C9
:1015900008E081B108EB050081B209EB040080B2DC
:1015A0000B9A06E008EB050081B209EB040080B25B
:1015B0005A4600F0EDFBE043400700D17F1C641C5D
:1015C000A4B2B088A042D7D83079400700D07F1CA1
:1015D0006D1CADB2F088A842CBD8BDE8F09F0000EA
:1015E000000100204465627567203A205061696EF1
:1015F000745F447261774368617220496E707574DC
:10160000206578636565647320746865206E6F7209
:101610006D616C20646973706C61792072616E67B2
:10162000650D0A002DE9FF4F8046834885B00F46BF
:1016300084881299444502D3C088B84205D809B0BD
:101640007E48BDE8F04F00F05FBE03200024A0EB11
:10165000420015B20FFA80FA01297AD0E9E0264655
:1016600061E000BF4FF0010908EB040007EB060B37
:1016700002901FFA8BF1CDF8009080B24B46089A89
:1016800000F068F9A8EB040004901FFA8BF1CDF884
:10169000009080B20123089A00F05CF93819CDE976
:1016A000009081B2A8EB060B1FFA8BF00123089A79
:1016B00000F050F9381B039081B2CDF800901FFA6A
:1016C0008BF00123089A00F045F90498A7EB060B6C
:1016D0001FFA8BF1CDF8009080B20123089A00F038
:1016E00039F902981FFA8BF1CDF8009080B20123EE
:1016F000089A00F02FF9039808EB060B81B2CDF899
:1017000000901FFA8BF00123089A00F023F901984A
:10171000CDF8009081B21FFA8BF00123089A00F0F7
:1017200019F9761C36B2AE429CDDBAF1000F06DA2A
:101730000AEB8400801D0FFA80FA08E009E0611BC3
:101740000AEB81000A306D1E0FFA80FA2DB2641C7C
:1017500024B2AC4283DD09B0BDE8F08F08EB040091
:10176000012607EB050902901FFA89F1009680B265
:10177000139B089A00F0EEF8A8EB040003901FFA00
:1017800089F1009680B2139B089A00F0E3F83819AB
:10179000CDE9006081B2A8EB05091FFA89F0139B1F
:1017A000089A00F0D7F8A7EB040B1FFA8BF11FFA89
:1017B00089F00096139B089A00F0CCF80398A7EBE9
:1017C00005091FFA89F1009680B2139B089A00F070
:1017D000C1F802981FFA89F1009680B2139B089A0B
:1017E00000F0B8F808EB05091FFA8BF11FFA89F031
:1017F0000096139B089A00F0ADF80198009681B20C
:101800001FFA89F0139B089A00F0A4F8BAF1000FB0
:1018100005DA0AEB8400801D0FFA80FA07E0611BED
:101820000AEB81000A306D1E0FFA80FA2DB2641C9B
:1018300024B2AC4292DD8EE7000100206C53000818
:101840002DE9FE4F1646324A1D469388834208D33F
:10185000D3888B4205D39388B34202D3D288AA425D
:1018600004D2BDE8FE4F2BA000F04EBD83468A4651
:10187000321A00D5821B91466A1A002A00DD4A1BE3
:1018800090464FF0FF32B34501D2012000E01046F0
:101890000290AA4500D2012209EB08040027019218
:1018A0007F1C0D98FFB2012805D10320B7FBF0F192
:1018B00000FB1170F8B101200090514658460E9B74
:1018C0000C9A00F047F800BFB8EB440F07DCB345B3
:1018D0001CD0029944440BEB01001FFA80FBB9EBCA
:1018E000440FDDDBAA4511D001994C440AEB0100FD
:1018F0001FFA80FAD4E7012000904FF6FF7251469C
:1019000058460E9B00F026F80027DDE7BDE8FE8F65
:10191000000100204465627567203A205061696EBD
:10192000745F447261774C696E6520496E7075749E
:10193000206578636565647320746865206E6F72D6
:101940006D616C20646973706C61792072616E677F
:10195000650D0A002DE9F05F814626481C46884641
:1019600083880A9993464B4502D3C288424504D2E4
:10197000BDE8F05F204800F0C7BC012901D0002677
:1019800034E00025681E00EB440718E009EB050071
:101990000026A0EB040A0EE0BAF1000F0DD408EB0C
:1019A0000600001B09D481B21FFA8AF05A4600F0E3
:1019B000EFF9761C36B2B742EEDC6D1C2DB2AF42A9
:1019C000E4DCBDE8F09F002509EB06077F1E09E077
:1019D00008EB0500401E81B2B8B25A4600F0D8F9B3
:1019E0006D1C2DB2A542F3DB761C36B2A642EADBB3
:1019F000E7E7000000010020B05300082DE9FE4F8A
:101A0000824628480C461F46DDE90D1583880C9E4A
:101A10009146534509D3C288A24206D383884A46D9
:101A20004B4502D3C088B84204D2BDE8FE4F1EA089
:101A300000F06ABC0020804659B90EE00096CDE95E
:101A4000018523464A4619465046FFF7F9FE641CB5
:101A5000A4B2BC42F2D3BDE8FE8F0096CDE9018569
:101A6000234619465046FFF7EBFE0096CDE9018567
:101A700052463B4621461046FFF7E2FE0096CDE96E
:101A800001854A46234639461046FFF7D9FE00969F
:101A9000CDE901853B46524619464846FFF7D0FE40
:101AA000D9E70000000100204465627567203A20F4
:101AB000496E707574206578636565647320746819
:101AC00065206E6F726D616C20646973706C6179F2
:101AD0002072616E67650D0A000000002DE9F05F5D
:101AE0001D46904606468A46DDF828B0C7E07F29A5
:101AF0004FF0000061D8AA8859E000BFC0EBC004D5
:101B00002B6804EB440413F834308B424ED1C0EB05
:101B1000C00000EB400102202A6800EBC10002EB8C
:101B2000000900273EE0002433E000BFABF57F4111
:101B3000FF390CD0E01704EB507020F00700221A98
:101B400099F800108020D04001420CD112E0E1173A
:101B500004EB517121F00701621A99F8000080210D
:101B6000D14008420ED00AEB070081B2301980B292
:101B70000B9A05E00AEB070081B2301980B25A4691
:101B800000F006F941482040072801D109F1010978
:101B9000641C2889A042C9DC287A400701D009F1D9
:101BA00001097F1C6889B842BDDC02E0401C82420A
:101BB000A4DC08F10108E88860E00127AB8858E060
:101BC000C0EBC0022C6802EB420214F832C08C4514
:101BD0004ED107EBC202A45C98F80120944247D191
:101BE000C0EBC00000EB40020220296800EBC200FD
:101BF00001EB0009002737E000242CE04FEAE470F5
:101C000004EB5070ABF57F4120F00700FF39A4EBE7
:101C1000000299F800104FF0800020FA02F001EA6B
:101C2000000101D009B907E071B10AEB070081B2E8
:101C3000301980B20B9A05E00AEB070081B2301927
:101C400080B25A4600F0A4F810482040072801D17D
:101C500009F10109641C2889A042CFDC287A4007D9
:101C600001D009F101097F1C6889B842C4DC02E097
:101C7000401C8342A4DC288908F10208064498F835
:101C8000001000297FF433AFBDE8F09F070000800B
:101C90002DE9FC5F80461B4889460D468188DDF8AA
:101CA00034B01E4617464446A14203D3C18882463B
:101CB000A94222D2BDE8FC5F134800F025BBB088E2
:101CC000BAF8043001195046994203D9F1884446C4
:101CD00029448DB2F188C0882944814201D9444603
:101CE0004D460C99CDE9001B334629462046FFF7A7
:101CF0001DFCB0887F1C204484B23A78002ADED1D3
:101D0000BDE8FC9F00010020245300082DE9F041AC
:101D10000F4C17460D46064620816181A3816082E3
:101D2000A182A28A618A0BA000F0EEFA0F2112A014
:101D300000F0EAFAE781002020822FB1B42F03D00F
:101D4000A580E680BDE8F081A680E580FAE7000086
:101D500000010020576964746842797465203D2051
:101D600025642C2048656967687442797465203D54
:101D70002025640D0A000000204550445F57494467
:101D80005448202F2038203D2025640D0A000000F3
:101D900030B4044624488388A3423AD3C3888B4294
:101DA00037D3C389E3B15A2B1CD0B42B20D0B3F561
:101DB000877F36D10B464189091B491E89B2048AA7
:101DC0000CB3012C1BD0022C05D0032C29D1048983
:101DD000E31A5B1E9BB24489611A491E89B212E064
:101DE0002346ECE70389591A491E8BB22146E6E7E0
:101DF00003891B1B5B1E44899BB2611ADDE70489C2
:101E0000E31A5B1E9BB204899C4202D3408988423C
:101E100003D230BC05A000F077BA30BC1846FFF7FB
:101E2000FFB830BC704700000001002044656275B7
:101E300067203A20457863656564696E6720646948
:101E400073706C617920626F756E6461726965731D
:101E50000D0A000010B504000BD05A2C09D0B42C88
:101E600007D0B4F5877F04D0BDE8104004A000F08F
:101E70004BBA01460BA000F047FA1248C48110BDCE
:101E80004465627567203A20726F74617465203D05
:101E900020302C2039302C203138302C2032373073
:101EA0000D0A00004465627567203A20536574206E
:101EB000696D61676520526F746174652025640DDA
:101EC0000A00000000010020704738B50B46009260
:101ED00004460022802100F008F8002804D0606D3C
:101EE00040F020006065032038BD2DE9F0411D461B
:101EF00017460E460446DDF8188008E0681C06D038
:101F0000FEF762FAA0EB0800A8420BD255B1206898
:101F1000806836EA000030D00020B842EED10020C0
:101F2000BDE8F0812068416821F0E001416060680F
:101F3000B0F5827F0BD1A068B0F5004F02D0B0F5AC
:101F4000806F04D12068016821F040010160A06A1F
:101F5000B0F5005F09D12068016821F400510160EB
:101F60002068016841F400510160012084F85100AB
:101F7000002084F850000320D2E70120CDE770470D
:101F8000FEF728BA30B58FB028216846FEF7D1F8A1
:101F900014210AA8FEF7CDF801210804CDE90010AC
:101FA0000024029402250491CDE907504FF4E0107B
:101FB00009906846FEF784FB0F20CDE90A05680208
:101FC000CDE90C4002210AA80E94FEF78DFA0FB05D
:101FD00030BD00000D48016841F001010160416819
:101FE0000B4A1140416001680A4A114001600168D2
:101FF00021F480210160416821F4FE0141604FF429
:102000001F0181600449C00308607047001002404E
:102010000000FFF8FFFFF6FE08ED00E0F0B50268F3
:10202000164B174C174D4FF08047984205D0B842D9
:1020300003D0A04201D0A84203D122F070064A6822
:102040003243984205D0B84203D0A04201D0A84202
:1020500003D122F44074CA6822434C6922F0800202
:10206000224302608A68C2620A688262984201D191
:102070000969016301214161F0BD0000002C0140AC
:10208000000400400008004010B501F01F030121CA
:10209000046A99408C430462016A9A4011430162C8
:1020A00010BD000030B5026A22F001020262026A2D
:1020B0004368846924F073050C682C4322F0020500
:1020C0008A682A430A4DA8420BD122F00805CA6843
:1020D00023F440732A434D6922F004021D438B69A7
:1020E0002B434360846149684163026230BD000054
:1020F000002C014030B5026A22F010020262026A2E
:10210000436884690D6824F4E64444EA05248D6834
:1021100022F0200242EA05120B4DA8420ED1CD68F2
:1021200022F0800242EA05124D6923F4406343EA3B
:1021300085038D6922F0400243EA85034360846190
:1021400049688163026230BD002C014030B5026AEB
:1021500022F480720262036A4268C46923F4007345
:1021600024F073050C682C438D6843EA05230C4D5D
:10217000A8420ED1CD6823F4006343EA05234D69DC
:1021800022F4405242EA05128D6923F4806342EA48
:1021900005124260C4614968C163036230BD00003A
:1021A000002C014030B5026A22F480520262046AB7
:1021B0004268C3690D6823F4E64343EA05238D684A
:1021C00024F4005444EA0534064DA84204D14D6974
:1021D00022F4804242EA85124260C3614968016488
:1021E000046230BD002C01402DE9F0410446006836
:1021F0000169E26821F44051114301612169A0683D
:102200000843616908432168CA6841F20C639A4334
:102210000243CA6020684169A26921F440711143F8
:1022200041611E49206864253226884202D1FEF7AA
:1022300001FA01E0FEF7EEF900EBC00101EB00113D
:1022400060686FF018078000B1FBF0F2B2FBF5F2A6
:10225000B1FBF0F37A4303EB8202B1FBF0F306EB40
:102260000212B2FBF5F2B3FBF5F302F0F00202EB5F
:102270000312B1FBF0F3B1FBF0F0B0FBF5F07843E3
:1022800003EB800006EB0010B0FBF5F0216800F0D6
:102290000F0010448860BDE8F08100000038014064
:1022A0002DE9F041984617460E460446069D1DE06E
:1022B000681C1BD02DB1FEF787F8A0EB0800A842E0
:1022C00014D92068C16821F4D071C16020684169C7
:1022D00021F001014161202084F8390084F83A009E
:1022E000002084F838000320BDE8F08120680068F1
:1022F00036EA000004D00020B842D9D00020F3E72D
:102300000120F9E7FEE700000FB4054B10B503A963
:10231000044A029800F028F810BC5DF814FB000095
:1023200021250008240000200907090E002804DBED
:1023300000F1E02080F80014704700F00F0000F179
:10234000E02080F8141D704702E008C8121F08C181
:10235000002AFAD170477047002001E001C1121F26
:10236000002AFBD1704700002DE9FF4F8BB09A4641
:102370000F460546002606E025280BD052460D994B
:1023800090476D1C761C28780028F5D10FB0304698
:10239000BDE8F08F0024A0460122604900E004431C
:1023A00015F8013F203B02FA03F00842F7D12878E4
:1023B0002E2817D115F8010F44F004042A280ED056
:1023C0006FF02F022878A0F1300109290AD808EB14
:1023D000880102EB410100EB01086D1CF2E757F8A0
:1023E000048B6D1C287869283ED006DC0028CDD0EF
:1023F00063280BD0642804D136E0732810D07528E8
:102400004BD052460D999047761C85E017F8040B87
:102410008DF8000000208DF80100E946012003E05E
:1024200057F8049B4FF0FF3061074FF0000401D4D0
:102430000AE0641C44450DDA8442FADB19F8041002
:102440000029F6D106E0641C8442FCDB19F8041074
:102450000029F8D1264404E019F8010B52460D99E1
:102460009047641EF8D257E001CF4FF00A0B0028C6
:1024700002DA40422D2102E0210504D52B218DF8FE
:102480002410012103E0E10705D02021F7E70DF139
:10249000200908910CE00021F9E701CF4FF00A0B69
:1024A000F9E75946FDF750FE01F1300209F8012D18
:1024B0000028F6D1ADEB090000F1200B600701D434
:1024C0004FF00108D84502DDA8EB0B0000E000202A
:1024D0008046002406E009A85246005D0D99904709
:1024E000641C761C08988442F5DB04E030205246D8
:1024F0000D999047761CB8F10001A8F10108F5DCB0
:1025000005E019F8010B52460D999047761CBBF176
:102510000001ABF1010BF4DC6D1C34E7092801006C
:1025200013B54FF6FF73012269460248FEF7F6FC29
:1025300000981CBDC00000200EB5FDF753FFFFF74B
:1025400021FDFEF71DFFFEF76FFFFEF793FFFEF77D
:10255000CDFF04214948FEF75BFCFEF76BFD4FF40D
:1025600078463046FEF738FD4FF47A742046FDF782
:1025700023FE4FF4FC694846FEF72EFD2046FDF78A
:102580001BFE1F20FEF728FD2046FDF715FE4FF627
:10259000FF74234600224FF4A071F020FFF7B6FB32
:1025A0002046FEF7C1FF4FF48770FFF753FC4FF64C
:1025B000E077CDE90076324B32A20A211E20FFF7E8
:1025C00067FB61101F20CDE900012D4B2EA22221B7
:1025D0001E20FFF75DFBCDE900462C4B2CA2B42159
:1025E0003220FFF77BFA022400250096CDE9015442
:1025F0003A23E1220A217D20FFF700FA4FF61F0857
:10260000CDF80080CDE901543A23E1220A217D2052
:10261000FFF716F9CDF80080CDE901543A237D2269
:102620000A21E120FFF70CF9CDE900541F231922FC
:1026300064219620FEF7F6FFCDE90054002319220D
:102640006421B420FEF7EEFFCDE900543346192291
:102650006421D220FEF7E6FFCDE900543B46192263
:102660007D21A520FEF7DEFFCDE900544B4619225F
:102670007D21C320FEF7D6FFFEE70000800000208A
:102680001000002031323300414243001800002086
:10269000CEA2D1A9B5E7D7D300000000000000000A
:1026A0000000000001020304060708090000000002
:1026B0000102030400000000000000000000000010
:1026C000000000000000000000000000000000000A
:1026D00000000000000000000000000000000000FA
:1026E00000000000000000000000000000000000EA
:1026F00000000000000000000000000000000000DA
:10270000000003800003800003800003800003803A
:1027100000038000038000038000038000010000AC
:1027200001000000000000000003800003800000A2
:102730000000000000000000000000000000000099
:10274000000000000000000000000000000E70000B
:102750000E70000E7000042000042000042000040D
:102760002000000000000000000000000000000049
:102770000000000000000000000000000000000059
:102780000000000000000000000000000000000049
:10279000000006600006600006600006600006603B
:1027A000003FF8003FF8000660000CC0003FF80052
:1027B0003FF8000CC0000CC0000CC0000CC0000CA6
:1027C000C000000000000000000000000000000049
:1027D0000000000000000001800001800007B00040
:1027E0000FF0001870001870001C00000F80000728
:1027F000E00000F0001830001C30001C70001FE0EA
:10280000001BC000018000018000018000018000E9
:1028100000000000000000000000000000000000B8
:1028200000000780000FC0001CE000186000186066
:10283000001CE0000FF80007E0001FF00007380060
:1028400006180006180007380003F00001E0000039
:102850000000000000000000000000000000000078
:102860000000000000000000000000000000000068
:1028700003F00007F0000C60000C00000C000006E4
:1028800000000700000F9C001DFC0018F0001870ED
:10289000000FFC0007DC000000000000000000004A
:1028A0000000000000000000000000000000000028
:1028B000000000000003800003800003800001008E
:1028C0000001000001000001000000000000000005
:1028D00000000000000000000000000000000000F8
:1028E00000000000000000000000000000000000E8
:1028F0000000000000000000000000180000380088
:1029000000700000F00000E00000E00001C00001E5
:10291000C00001C00001C00001C00001C00000E013
:102920000000E00000700000700000380000180097
:102930000000000000000000000000000000000097
:1029400000001800001C00000E00000E0000070030
:102950000007000003800003800003800003800064
:102960000380000380000700000700000F00000E36
:1029700000001C0000180000000000000000000023
:102980000000000000000000000001800001800045
:102990000180001DB8001FF80007E00003C000031D
:1029A000C00006600006600000000000000000009B
:1029B0000000000000000000000000000000000017
:1029C0000000000000000000000000000000000007
:1029D0000000000000000000018000018000018074
:1029E000000180000180003FFC003FFC00018000EE
:1029F00001800001800001800001800000000000D3
:102A000000000000000000000000000000000000C6
:102A100000000000000000000000000000000000B6
:102A200000000000000000000000000000000000A6
:102A3000000000000000000000000000000000E0B6
:102A40000000C00001C00001800001800003000000
:102A50000300000000000000000000000000000073
:102A60000000000000000000000000000000000066
:102A7000000000000000001FF8001FF80000000028
:102A80000000000000000000000000000000000046
:102A90000000000000000000000000000000000036
:102AA0000000000000000000000000000000000026
:102AB0000000000000000000000000000000000016
:102AC000000000000000000000000000000003C043
:102AD0000003C00003C00000000000000000000070
:102AE00000000000000000000000000000180000CE
:102AF0001800003800003000007000006000006026
:102B00000000C00000C00001800001800003000040
:102B10000300000600000600000E00000C00001C70
:102B20000000180000180000000000000000000075
:102B30000000000000000000000003C00007E000EB
:102B40000C30000C30001818001818001818001865
:102B500018001818001818001818000C30000C3055
:102B60000007E00003C000000000000000000000BB
:102B70000000000000000000000000000000000055
:102B800000000080000780001F80001D8000018081
:102B900000018000018000018000018000018000B0
:102BA0000180000180000180001FF8001FF8000074
:102BB0000000000000000000000000000000000015
:102BC0000000000000000000000007C0001FF0002F
:102BD00038300030180030180000180000300000B5
:102BE000600001C0000380000600000C0000180017
:102BF000003FF8003FF80000000000000000000067
:102C000000000000000000000000000000000000C4
:102C1000000003C0000FE0000C7000003000003026
:102C20000000600003C00003E00000700000180016
:102C30000018000018001838001FF0000FC0000036
:102C40000000000000000000000000000000000084
:102C50000000000000000000000000E00001E000B3
:102C600001E0000360000660000660000C60000CDC
:102C700060001860003060003FF8003FF80000601E
:102C80000003F80003F8000000000000000000004E
:102C90000000000000000000000000000000000034
:102CA00000001FF0001FF0001800001800001800BE
:102CB000001BC0001FF0001C3000001800001800AE
:102CC0000018000018003030003FF0000FC0000076
:102CD00000000000000000000000000000000000F4
:102CE0000000000000000000000000F80003F800F1
:102CF0000700000E00000C00001800001BC0001FA1
:102D0000F0001C30001818001818001818000C38B3
:102D1000000FF00003E000000000000000000000D1
:102D200000000000000000000000000000000000A3
:102D300000001FF8001FF8001818001838000030B5
:102D40000000300000700000600000600000E00043
:102D500000C00000C00001C0000180000180000030
:102D60000000000000000000000000000000000063
:102D70000000000000000000000007E0000FF0006D
:102D80001C38001818001818000C300007E0000765
:102D9000E0000C30001818001818001818001C3833
:102DA000000FF00007E0000000000000000000003D
:102DB0000000000000000000000000000000000013
:102DC000000007C0000FF0001C3000181800181891
:102DD000001818000C38000FF80003D80000180085
:102DE00000300000700000E0001FC0001F00000065
:102DF00000000000000000000000000000000000D3
:102E000000000000000000000000000000000000C2
:102E100000000000000003C00003C00003C0000069
:102E2000000000000000000000000000000003C0DF
:102E30000003C00003C0000000000000000000000C
:102E40000000000000000000000000000000000082
:102E5000000000000000000000000000000000F082
:102E60000000F00000F00000000000000000000082
:102E700000000000E00001C00001800001800003AC
:102E80000000020000000000000000000000000040
:102E90000000000000000000000000000000000032
:102EA000001C00003C0000F00003C0000F00003CCC
:102EB0000000F000003C00000F000003C00000F024
:102EC00000003C00001C00000000000000000000AA
:102ED00000000000000000000000000000000000F2
:102EE00000000000000000000000000000000000E2
:102EF000007FFC007FFC000000000000007FFC0061
:102F00007FFC000000000000000000000000000046
:102F100000000000000000000000000000000000B1
:102F200000000000000000000000000000000000A1
:102F30007000007800001E000007800001E0000023
:102F40007800001E0000780001E0000780001E00ED
:102F50000078000070000000000000000000000089
:102F60000000000000000000000000000000000061
:102F7000000000000007C0000FE0001870001830CB
:102F80000018300000700000E00003C00003800063
:102F90000300000000000000000700000700000020
:102FA0000000000000000000000000000000000021
:102FB0000000000000000000000003E00007F00037
:102FC0000E38000C180018780018F80019D80019ED
:102FD000980019980019980018F80018780018003F
:102FE000000C00000E180007F80003E000000000CD
:102FF00000000000000000000000000000000000D1
:1030000000000000001F80001FC00001C00003601E
:10301000000360000630000630000C30000FF8009E
:103020001FF800180C00300C00FC7F00FC7F000033
:103030000000000000000000000000000000000090
:10304000000000000000000000000000007FE00021
:103050007FF0001838001818001818001838001FE2
:10306000F0001FF800181C00180C00180C00180CB9
:10307000007FF8007FF0000000000000000000006A
:103080000000000000000000000000000000000040
:10309000000000000003EC000FFC001C1C00180CDA
:1030A00000300C0030000030000030000030000024
:1030B000300000180C001C1C000FF80003F000008A
:1030C0000000000000000000000000000000000000
:1030D000000000000000000000000000007FC000B1
:1030E0007FF000183800181800180C00180C001891
:1030F0000C00180C00180C00180C001818001838D8
:10310000007FF0007FE000000000000000000000F1
:1031100000000000000000000000000000000000AF
:1031200000000000007FF8007FF800181800181851
:10313000001998001980001F80001F80001980006E
:103140001998001818001818007FF8007FF8000080
:10315000000000000000000000000000000000006F
:10316000000000000000000000000000003FFC0024
:103170003FFC000C0C000C0C000CCC000CC0000F31
:10318000C0000FC0000CC0000CC0000C00000C0000
:10319000003FC0003FC00000000000000000000031
:1031A000000000000000000000000000000000001F
:1031B000000000000003EC000FFC001C1C00180CB9
:1031C00000300C0030000030000030FE0030FE0007
:1031D000300C00380C001C1C000FFC0003F0000039
:1031E00000000000000000000000000000000000DF
:1031F000000000000000000000000000007E7E00D3
:103200007E7E001818001818001818001818001FE3
:10321000F8001FF8001818001818001818001818DF
:10322000007E7E007E7E00000000000000000000A6
:10323000000000000000000000000000000000008E
:1032400000000000001FF8001FF80001800001804E
:1032500000018000018000018000018000018000E9
:103260000180000180000180001FF8001FF80000AD
:10327000000000000000000000000000000000004E
:103280000000000000000000000000000007FE0039
:1032900007FE000030000030000030000030000069
:1032A00030003030003030003030003030003060DE
:1032B000003FE0000F800000000000000000000060
:1032C00000000000000000000000000000000000FE
:1032D00000000000007F3E007F3E001830001860B4
:1032E0000018C0001980001B80001FC0001CE000F7
:1032F0001870001830001838007F1F007F1F000072
:1033000000000000000000000000000000000000BD
:10331000000000000000000000000000007F8000AE
:103320007F80000C00000C00000C00000C00000C62
:1033300000000C00000C0C000C0C000C0C000C0C21
:10334000007FFC007FFC0000000000000000000087
:10335000000000000000000000000000000000006D
:103360000000000000F00F00F81F00381C003C3C7B
:10337000003C3C00366C00366C0033CC0033CC0093
:10338000318C00300C00300C00FE7F00FE7F00000E
:10339000000000000000000000000000000000002D
:1033A0000000000000000000000000000078FE00A7
:1033B00078FE001C18001E18001F18001B18001BA8
:1033C000980019D80018D80018F800187800183894
:1033D000007F18007F1800000000000000000000BF
:1033E00000000000000000000000000000000000DD
:1033F000000000000003C0000FF0001C3800181887
:1034000000381C00300C00300C00300C00300C0078
:10341000381C001818001C38000FF00003C0000012
:10342000000000000000000000000000000000009C
:10343000000000000000000000000000003FF0005D
:103440003FF8000C1C000C0C000C0C000C0C000CC9
:1034500018000FF8000FE0000C00000C00000C003A
:10346000003FC0003FC0000000000000000000005E
:10347000000000000000000000000000000000004C
:10348000000000000003C0000FF0001C38001818F6
:1034900000381C00300C00300C00300C00300C00E8
:1034A000381C001818001C38000FF00007C0000777
:1034B000CC000FFC000C38000000000000000000F1
:1034C000000000000000000000000000007FE0009D
:1034D0007FF0001838001818001818001838001F5E
:1034E000F0001FC00018E0001870001830001838F5
:1034F000007F1E007F0E00000000000000000000A2
:1035000000000000000000000000000000000000BB
:10351000000000000007D8000FF8001C3800181841
:10352000001818001E00000FC00003F00000780013
:103530001818001818001C38001FF0001BE00000CD
:10354000000000000000000000000000000000007B
:10355000000000000000000000000000003FFC0030
:103560003FFC00318C00318C00318C00318C00012B
:103570008000018000018000018000018000018046
:10358000000FF0000FF0000000000000000000003D
:10359000000000000000000000000000000000002B
:1035A00000000000007E7E007E7E001818001818C3
:1035B000001818001818001818001818001818001B
:1035C0001818001818000C30000FF00003C000009D
:1035D00000000000000000000000000000000000EB
:1035E000000000000000000000000000007F7F00DD
:1035F0007F7F00180C000C18000C18000C18000637
:10360000300006300003600003600003600001C06A
:103610000001C00000800000000000000000000069
:10362000000000000000000000000000000000009A
:103630000000000000FE3F80FE3F803006003006A4
:103640000030860019CC0019CC001B6C001B6C00EC
:103650001E7C000E38000E38000C18000C180000FC
:10366000000000000000000000000000000000005A
:10367000000000000000000000000000007E7E004E
:103680007E7E001818000C300006600003C00001A8
:10369000800001800003C0000660000C3000181894
:1036A000007E7E007E7E0000000000000000000022
:1036B000000000000000000000000000000000000A
:1036C00000000000007C7E007C7E001818000C309A
:1036D0000006600006600003C00001800001800059
:1036E0000180000180000180000FF0000FF0000059
:1036F00000000000000000000000000000000000CA
:10370000000000000000000000000000001FF800A2
:103710001FF80018180018300018600018C00001C9
:1037200080000300000618000C180018180030185C
:10373000003FF8003FF8000000000000000000001B
:103740000000000000000000000000000000000079
:10375000000001F00001F000018000018000018004
:1037600000018000018000018000018000018000D4
:1037700001800001800001800001800001800001C3
:10378000800001F00001F0000000000000000000D7
:10379000000000001800001800001C00000C0000D1
:1037A0000E000006000006000003000003000001F8
:1037B000800001800000C00000C0000060000060C8
:1037C00000007000003000003800001800001800F1
:1037D00000000000000000000000000000000000E9
:1037E00000000F80000F8000018000018000018038
:1037F0000001800001800001800001800001800044
:103800000180000180000180000180000180000132
:1038100080000F80000F800000000000000000000A
:103820000000000000000000800001C00003E00074
:103830000770000630000C1800180C00100400007F
:103840000000000000000000000000000000000078
:103850000000000000000000000000000000000068
:103860000000000000000000000000000000000058
:103870000000000000000000000000000000000048
:103880000000000000000000000000000000000038
:103890000000000000000000000000000000000028
:1038A0000000000000000000000000000000FFFF1A
:1038B00000FFFF0000000003000003800000E000A4
:1038C0000060000000000000000000000000000098
:1038D00000000000000000000000000000000000E8
:1038E00000000000000000000000000000000000D8
:1038F00000000000000000000000000000000000C8
:1039000000000000000000000000000000000FC0E8
:10391000001FE00000300000300007F0001FF00042
:103920003830003030003070001FFC000FBC000049
:103930000000000000000000000000000000000087
:103940000000000000000000000078000078000087
:103950001800001800001BE0001FF8001C180018D9
:103960000C00180C00180C00180C00180C001C1887
:10397000007FF8007BE00000000000000000000075
:103980000000000000000000000000000000000037
:10399000000000000000000000000000000003EC38
:1039A000000FFC001C1C00380C00300C0030000024
:1039B000300000380C001C1C000FF80003F0000061
:1039C00000000000000000000000000000000000F7
:1039D00000000000000000000000007800007800F7
:1039E00000180000180007D8001FF8001838003031
:1039F000180030180030180030180030180018383F
:103A0000001FFE0007DE00000000000000000000B4
:103A100000000000000000000000000000000000A6
:103A2000000000000000000000000000000007E0AF
:103A3000001FF800181800300C003FFC003FFC008D
:103A4000300000300000180C001FFC0007F00000E0
:103A50000000000000000000000000000000000066
:103A60000000000000000000000001FC0003FC005A
:103A70000600000600003FF8003FF80006000006C0
:103A80000000060000060000060000060000060018
:103A9000003FF0003FF000000000000000000000C8
:103AA0000000000000000000000000000000000016
:103AB000000000000000000000000000000007DE21
:103AC000001FFE00183800301800301800301800B1
:103AD0003018003018001838001FF80007D8000010
:103AE00018000018000038000FF0000FC0000000A0
:103AF00000000000000000000000780000780000D6
:103B00001800001800001BE0001FF0001C3800180F
:103B1000180018180018180018180018180018189D
:103B2000007E7E007E7E000000000000000000009D
:103B30000000000000000000000000000000000085
:103B400000000180000180000000000000001F80D4
:103B5000001F8000018000018000018000018000C2
:103B60000180000180000180003FFC003FFC00005C
:103B70000000000000000000000000000000000045
:103B80000000000000000000000000C00000C000B5
:103B90000000000000001FF0001FF00000300000D7
:103BA00030000030000030000030000030000030F5
:103BB00000003000003000003000003000007000D5
:103BC0001FE0001F80000000000000000000000057
:103BD00000003C00003C00000C00000C00000CF851
:103BE000000CF8000CC0000D80000F80000F0000DA
:103BF0000F80000DC0000CE0003C7C003C7C00000D
:103C000000000000000000000000000000000000B4
:103C1000000000000000000000001F80001F800066
:103C2000018000018000018000018000018000010E
:103C3000800001800001800001800001800001807F
:103C4000003FFC003FFC00000000000000000000FE
:103C50000000000000000000000000000000000064
:103C60000000000000000000000000000000F778E5
:103C700000FFFC0039CC00318C00318C00318C000D
:103C8000318C00318C00318C00FDEF00FDEF000025
:103C90000000000000000000000000000000000024
:103CA0000000000000000000000000000000000014
:103CB0000000000000007BE0007FF0001C380018CE
:103CC00018001818001818001818001818001818EC
:103CD000007E7E007E7E00000000000000000000EC
:103CE00000000000000000000000000000000000D4
:103CF000000000000000000000000000000003C001
:103D0000000FF0001C3800381C00300C00300C0094
:103D1000300C00381C001C38000FF00003C00000FD
:103D20000000000000000000000000000000000093
:103D30000000000000000000000000000000000083
:103D40000000000000007BE0007FF8001C18001855
:103D50000C00180C00180C00180C00180C001C1893
:103D6000001FF8001BE000180000180000180000F9
:103D70007F00007F00000000000000000000000045
:103D8000000000000000000000000000000007DE4E
:103D9000001FFE00183800301800301800301800DE
:103DA0003018003018001838001FF80007D800003D
:103DB000180000180000180000FE0000FE000000BF
:103DC00000000000000000000000000000000000F3
:103DD0000000000000003E78003EFC0007CC000719
:103DE00000000600000600000600000600000600B5
:103DF000003FF0003FF00000000000000000000065
:103E000000000000000000000000000000000000B2
:103E1000000000000000000000000000000007F8A3
:103E2000000FF8001818001818001F80000FF0008D
:103E300000F8001818001838001FF0001FE00000FC
:103E40000000000000000000000000000000000072
:103E5000000000000000000000000C00000C00004A
:103E60000C00000C00003FF0003FF0000C00000CC4
:103E700000000C00000C00000C00000C00000C1CEA
:103E80000007FC0003F0000000000000000000003C
:103E90000000000000000000000000000000000022
:103EA0000000000000000000000000000000787822
:103EB0000078780018180018180018180018180052
:103EC0001818001818001838000FFE0007DE000050
:103ED00000000000000000000000000000000000E2
:103EE00000000000000000000000000000000000D2
:103EF0000000000000007C3E007C3E001818001806
:103F000018000C30000C300006600006600007E06E
:103F10000003C00003C0000000000000000000001B
:103F20000000000000000000000000000000000091
:103F30000000000000000000000000000000783CCD
:103F400000783C003118003398003398001AB00014
:103F50001EF0001EF0001C60000C60000C600000F1
:103F60000000000000000000000000000000000051
:103F70000000000000000000000000000000000041
:103F80000000000000003E7C003E7C000C3000067B
:103F9000600003C00001800003C0000660000C3018
:103FA000003E7C003E7C000000000000000000009D
:103FB0000000000000000000000000000000000001
:103FC00000000000000000000000000000007E1F54
:103FD000007E1F00180C000C18000C1800063000A2
:103FE00006300003600003E00001C00000C00001D3
:103FF00080000180000300003FC0003FC0000000BF
:1040000000000000000000000000000000000000B0
:104010000000000000001FF8001FF8001830001812
:10402000600000C0000180000300000618000C18AA
:10403000001FF8001FF80000000000000000000052
:104040000000000000000000000000000000000070
:10405000000000E00001E00001800001800001801C
:104060000001800001800001800003800007000043
:1040700003800001800001800001800001800001B8
:10408000800001E00000E0000000000000000000EF
:10409000000000000000000000000180000180001E
:1040A000018000018000018000018000018000018A
:1040B00080000180000180000180000180000180FB
:1040C000000180000180000180000180000180006B
:1040D00000000000000000000000000000000000E0
:1040E00000000700000780000180000180000180BF
:1040F0000001800001800001800001C00000E0009C
:1041000001C00001800001800001800001800001E9
:104110008000078000070000000000000000000091
:10412000000000000000000000000000000000008F
:104130000000000000000000000000000E00001F52
:1041400018003BB80031F00000E000000000000063
:10415000000000000000000000000000000000005F
:10416000000000000000000000000000C4E30000A8
:10417000000000000000000000000000000000003F
:104180000000000000000000000001C1C00001E3C9
:10419000E00003E3C00003C7800003C7FFFF078FF1
:1041A000FFFF078F000F0F1E001E0F3C1E1E1F3C3F
:1041B0001E3E1F181E3C3F001E1C7F001E007F0776
:1041C0009E70FF079EF0EF0F9E786F0F1E780F0F07
:1041D0001E3C0F1E1E3C0F1E1E1E0F3C1E1E0F3CC3
:1041E0001E1F0F7C1E0F0F781E0E0F001E000F00EB
:1041F0001E000F003C000F07FC000F07F800000036
:1042000000000000000000000000000000000000AE
:1042100000000000BAC30000000000000000000021
:1042200000000000000000000000000000000F007F
:1042300000000F0000000F07FFFE0F07FFFE0F003A
:10424000003E1E0000FCFFF801F0FFF803E01E78BE
:1042500007C01E780F803C780F003C780F003C7838
:104260000F003C780F003C7FFFFF78FFFFFF78F0E6
:104270000F0078F00F003DE00F001FE00F000FE08F
:104280000F0007C00F0007E00F0007F00F000FF846
:104290000F001E7C0F003C380F0078000F00F00369
:1042A000FF006001FE0000000000000000000000B0
:1042B000000000000000000000000000CEA200008E
:1042C00000000000000000000000000000000000EE
:1042D000000000000000030701E0078701E0070776
:1042E00001C00FF779C01EF77BC01EF77B803CF73B
:1042F0007BFF78F77BFFF8F77F9EF7FFFF9E67FF56
:10430000FF9E07007F9C0F000F9C1E001F9C1E7FBE
:10431000FFBC3E7FF3FC3E0003FC7E0001F8FE0084
:1043200001F8FE7FE1F8DE7FE1F81E78E0F01E780C
:10433000EEF01E78FFF01E78FDF81E79FBFC1EF1F2
:10434000F7BC1EF0EF9E1FE00F0F1EC01E0F1E00D9
:104350000C0700000000000000000000000000004A
:1043600000000000C8ED0000000000000000000098
:104370000000000000000000000003C0780007807B
:104380007800078078000780F0000F00F000FFFF42
:10439000FFFFFFFFFFFF1E03C01F1E03C01E1FE71E
:1043A0008F3E3DE78F3C3DEF0F7C3DE70F7879E096
:1043B0000F0079E00E007FFE0E007FFE1F0001E07F
:1043C0001F0001E01F0001E01F8001E01F8001E0ED
:1043D0003F8001FF3FC00FFF7BC0FFF079E0F9E0B5
:1043E000F1F001E1F0F001E3E0F801E7C07C01FF4A
:1043F000803F01FF001F01EC000E000000000000E4
:10440000000000000000000000000000D1C5000016
:10441000000000000000000000000000000000009C
:10442000000000000000000077000000FF007FFC9B
:10443000F7807FFDE3C001C1E3C001C3C1803DC778
:10444000FFFF39C7FFFF39CF838079DF838079FF92
:10445000838079DF838071C383807FFFFFFE7FFFCE
:10446000FFFE03C3838007C3838007C383800FC31A
:1044700083800FC383801FC3FFFE1DC3FFFE3DC3A8
:10448000838079C38380F1C38380F1C3838061C358
:10449000838001C3FFFF03C3FFFF1FC380001F838F
:1044A000800000000000000000000000000000008C
:1044B00000000000BADA0000000000000000000068
:1044C00000000000000000000000000000000000EC
:1044D0000000000000001FFFFFFC1FFFFFFC1E0389
:1044E000C03C1EC3C73C1FE3C7BC1EF3CF3C1EFB32
:1044F000DF3C1E7BDE3C1E33DC3C1E03C03C1FFF4A
:10450000FFFC1FFFFFFC1E03C03C0003C0000003B4
:10451000C0003FFFFFFC3FFFFFFC0003C0000003A3
:10452000C0000003C000FFFFFFFFFFFFFFFF000010
:1045300000001C3870703E78F8F83C7C787C7C3C3D
:104540003C3EF83E3C1FF01C180E0000000000002E
:10455000000000000000000000000000B4CB0000DC
:10456000000000000000000000000000000000004B
:104570000000000000000000000000783C0000780F
:104580003C0000783C0000783C0000783C0000785B
:104590003C0C3C783C1E3C783C3F3C783CF83C7FF3
:1045A000FDF03C7FFFE03C783F803C783E003C786B
:1045B0003C003C783C003C783C003C783C003C783B
:1045C0003C003C783C003C783C0E3C783C0F3C780E
:1045D0003C0F3C79FC0F3C7FFC0F3FFF3C0F3FF052
:1045E0003E1EFF001FFEF0000FFC00000000000058
:1045F00000000000000000000000000000000000BB
:1046000000000000D7D600000000000000000000FD
:104610000000000000000000000000038000000710
:1046200080000003C0000003E0000001E0007FFF05
:10463000FFFE7FFFFFFE7800001E7800001E78005E
:10464000001E7800001E7BFFFFDE03FFFFC000009E
:104650000FC000003F0000007E000001F8000001D4
:10466000E0000001E000FFFFFFFFFFFFFFFF000190
:10467000E0000001E0000001E0000001E0000001B6
:10468000E0000001E0000003E0000003C00000FFC4
:10469000C00000FF800000000000000000000000DB
:1046A000000000000000000000000000CCE5000059
:1046B00000000000000000000000000000000000FA
:1046C0000000000000000000000003C03C0003C028
:1046D0003C0003C03C0007803C0007803C00078092
:1046E0003C000FFFFFFF0FFFFFFF1F01FE001F0138
:1046F000FF003F01FF003F03FF007F03FF807F07B4
:10470000BF80FF07BFC0EF0F3DC0CF0F3DE00F1EC2
:104710003DE00F1E3CF00F3C3C780F7C3C7C0FF8DA
:104720003C3E0FF7FFDF0FE7FFCF0FC03C060F0047
:104730003C000F003C000F003C000F003C000F004D
:104740003C0000000000000000000000000000002D
:1047500000000000CFC200000000000000000000C8
:104760000000000000000000000000000000000049
:10477000000000000000FFFFFFFFFFFFFFFF000F32
:104780008000000F8000000F8000000F8000000FED
:104790008000000F8000000FE000000FF800000F05
:1047A000FC00000FBF00000F9F80000F87E0000F8C
:1047B00083F0000F80F8000F807C000F8038000F1E
:1047C0008000000F8000000F8000000F8000000FAD
:1047D0008000000F8000000F8000000F8000000F9D
:1047E0008000000F800000000000000000000000BA
:1047F000000000000000000000000000B6D400002F
:1048000000000000000000000000000000000000A8
:104810000000000000000000000000000078000020
:104820000078000000787FFC00787FFC0078003C76
:104830000078003FFFFF303FFFFF783C00783C38B6
:1048400000783E7800781E78C0780F79E0780FF015
:10485000F07807F0F87803F0787801E03C7803F01E
:104860003E7803F0187807F8007807FC00780F3ED0
:1048700000781F1E00783E1F00787C0E00F8F800BC
:1048800000F0F0003FF060003FE00000000000009A
:104890000000000000000000000000000000000018
:1048A00000000000D3A6000000000000000000008F
:1048B000000000000000000000000001C000000334
:1048C000E0000001E0000001F0000000F0001FFF28
:1048D000FFFF1FFFFFFF1E0000001E0000001E0163
:1048E000E0781E01E0781EE1E0781FF1F0F81EF09C
:1048F000F0F01EF0F0F01EF8F0F01E78F1F01E78E7
:10490000F9E01E7879E01E7C7BE01E3C7BC01E3CFB
:104910007BC01E3C7BC03C3E07803C1C07803C00AB
:1049200007803C000F0078000F007BFFFFFFF3FFC4
:10493000FFFFF00000006000000000000000000029
:10494000000000000000000000000000B5C40000EE
:104950000000000000000000000000000000000057
:1049600000000000000003803C0007C03E000780FC
:104970003C0007807C000F0078007FFE7FFE7FFEFA
:10498000FFFE781EF01E781FE01E781FE01E781FC5
:10499000C01E781FC01E781FF01E781EF81E781EDD
:1049A0007C1E7FFE3C1E7FFE1E1E781E1F1E781E74
:1049B0000F9E781E079E781E071E781E001E781E0A
:1049C000001E781E003E781E003C781E003C7FFED4
:1049D000003C7FFE007C781E3FF8781E3FF0000010
:1049E00000000000000000000000000000000000C7
:1049F00000000000B5E3000000000000000000001F
:104A000000000000000000000000000000000003A3
:104A1000C0000003C0000003C0000003C00000038A
:104A2000FFFF0003FFFF0003C0000003C0000003FE
:104A3000C0000003C0000FFFFFF80FFFFFF80F00DA
:104A400000780F0000780F0000780F0000780F004A
:104A500000780F0000780FFFFFF80FFFFFF80F003E
:104A60000078000000000C3838301E7C78783E3C1E
:104A700078783C3C3C3C7C3E3C3EF81E3C1EF01EA4
:104A80001E1F701E1C0E0000000000000000000031
:104A9000000000000000000000000000D5F300004E
:104AA0000000000000000000000000000000000006
:104AB00000000000000000003C00000078007FF0D3
:104AC00078007FF0780079FFFFFF79FFFFFF79E141
:104AD000E00079E1E0007BC1EF807BC3CF807BC346
:104AE000CF807F87CF807F878F807F878F807BCFAE
:104AF0000F807BCFFFFE79EFFFFE79E00F8078E03B
:104B00000F8078F00F8078F00F8078F00F8078FFBA
:104B1000FFFF79FFFFFF7FE00F807FC00F807800ED
:104B20000F8078000F8078000F8078000F80780069
:104B30000F800000000000000000000000000000E6
:104B400000000000CEAA00000000000000000000ED
:104B50000000000000000000000000000000000055
:104B60000000000780000E0780001F0780000F87ED
:104B7000800007C7800001E7800000C780000007B1
:104B800080007FFFFFFC7FFFFFFC0007803C000FE1
:104B9000803C000F003C000F003C000F603C001FF9
:104BA000F03C001E783C003E3C3C003C3E3C007C1F
:104BB0001F3C00780F3C00F8063C01F0003C03E08D
:104BC000007C07C0007C0F8000781F0000F83E00CA
:104BD000FFF07C00FFE03800000000000000000053
:104BE000000000000000000000000000CAF7000004
:104BF00000000000000000000000000000000000B5
:104C0000000000000000000000000F0000380F004E
:104C100000380F0000380F3FF8380F3FF8380F000A
:104C20007838FFE07FFFFFE07FFF0F0070380F183C
:104C3000F0381F3CF0381F1CFE381FDEFE383FEFF7
:104C4000EF383FFFEF383FF7E7B87F67C7B87F031C
:104C5000C3B8FF07E038EF07E038EF0FF038CF1F99
:104C6000F0380F1E78380F3C7C380F783C380FF83E
:104C700038380F6000780F000FF80F0007F00F00B2
:104C80000000000000000000000000000000000024
:104C900000000000DDAE0000000000000000000089
:104CA0000000000000000000000000000000003CC8
:104CB0001E00003C1E00003C1E00FFFFFFFFFFFF28
:104CC000FFFF003C1E0007BC1E00078000000FFF16
:104CD000FFFC0FFFFFFC1E0000003C0000003C003A
:104CE00000007FFFFFF0F7FFFFF0378380F00787BA
:104CF000C0F00783F0F00700E0F0FFFFFFFFFFFFC9
:104D0000FFFF0F0F00E00F0F81E00E03E1E01E0137
:104D1000C1E01FFFFFFE1FFFFFFE000001E00000DB
:104D200003C00000FFC00000FF8000000000000082
:104D3000000000000000000000000000C5C90000E5
:104D40000000000000000000000000000000000063
:104D5000000000000000000000003800003E7C0061
:104D60003FFE3F3FFFF01FBFE00007BC0000033CD9
:104D70000000003C003C003C0FFE703DFFF8F83D99
:104D8000FF007C3DE7803F3DE7801F3DE78E0E3D05
:104D9000E79F003DE7FE0039E7F80039E3F01C39F2
:104DA000E3C01E79E3C01E79E1E01E79E1E03C79C1
:104DB000E0F03C79E0F83CF1E07C3CF1E37C7DF113
:104DC000EF3F79E1FE1F7BE1F80E7BC3E0007981C4
:104DD000C000000000000000000000000000000013
:104DE0000000000041000000000000000000000082
:104DF00000000000000000000000000000000000B3
:104E0000000000000000007C000000FC000000FE2C
:104E1000000000FE000001FF000001FF000001EFA4
:104E2000000003EF800003CF800007C7800007C7A2
:104E3000C0000787C0000F83E0000F83E0000F0170
:104E4000E0001FFFF0001FFFF0003FFFF8003E00F2
:104E5000F8003C00F8007C007C007C007C007800BE
:104E60003C00F8003E00F8003E000000000000009A
:104E70000000000000000000000000000000000032
:104E800000000000000000000000000061000000C1
:104E90000000000000000000000000000000000012
:104EA0000000000000000000000000000000000002
:104EB00000000000000000000000000000000000F2
:104EC0000000000000000000000007F800001FFEC6
:104ED00000003FFE00003E3F0000381F0000000FB2
:104EE0000000000F000003FF00001FFF00003F8FC5
:104EF00000007C0F00007C0F0000781F00007C1F6A
:104F000000007E7F00007FFF00003FFF00000FCF0A
:104F10000000000000000000000000000000000091
:104F20000000000000000000000000000000000081
:104F3000000000006200000000000000000000000F
:104F40000000000000000000000000000000000061
:104F500000003C0000003C0000003C0000003C0061
:104F600000003C0000003C0000003C0000003C0051
:104F700000003CFE00003DFF80003FFFC0003F8F6F
:104F8000C0003F07E0003E03E0003E03E0003C01BC
:104F9000E0003C01E0003C01E0003C03E0003E0397
:104FA000E0003E03E0003F07C0003F8FC0003FFF2E
:104FB00080003FFF00003CFC0000000000000000FB
:104FC00000000000000000000000000000000000E1
:104FD000000000000000000000000000630000006E
:104FE00000000000000000000000000000000000C1
:104FF00000000000000000000000000000000000B1
:1050000000000000000000000000000000000000A0
:105010000000000000000000000001FC000007FE8E
:1050200000001FFE00003F8600003E0000007C00E4
:1050300000007C0000007C00000078000000780088
:1050400000007C0000007C0000007C0000003E00AE
:1050500000003F8600001FFE00000FFE000003FC62
:105060000000000000000000000000000000000040
:105070000000000000000000000000000000000030
:1050800000000000CEA200000000000000000000B0
:105090000000000000000000000000000000030706
:1050A00001E0078701E0070701C00FF779C01EF78D
:1050B0007BC01EF77B803CF77BFF78F77BFFF8F720
:1050C0007F9EF7FFFF9E67FFFF9E07007F9C0F00FC
:1050D0000F9C1E001F9C1E7FFFBC3E7FF3FC3E000A
:1050E00003FC7E0001F8FE0001F8FE7FE1F8DE7FA0
:1050F000E1F81E78E0F01E78EEF01E78FFF01E78E2
:10510000FDF81E79FBFC1EF1F7BC1EF0EF9E1FE0C0
:105110000F0F1EC01E0F1E000C0700000000000035
:10512000000000000000000000000000D1A9000005
:10513000000000000000000000000000000000006F
:1051400000000000000000000000000000001FFF41
:10515000FFF81FFFFFF80003C0000003C0007FFF3F
:10516000FFFE7FFFFFFE7803C01E7803C01E7FFF97
:10517000FFFE7FFFFFFE0003C0000003C00007FF2B
:10518000FFE007FFFFE00003C000000000001FFF7A
:10519000FFF81FFFFFF800000078000000781FFFF5
:1051A000FFF81FFFFFF80000007800000078000003
:1051B00000783FFFFFF83FFFFFF800000078000095
:1051C00000000000000000000000000000000000DF
:1051D00000000000B5E70000000000000000000033
:1051E00000000000000000000000000000000007B8
:1051F00080000007800000078000000780007FFF1C
:10520000FFF87FFFFFF8780780F8780780F87807C5
:1052100080F8780780F8780780F8780780F87FFFB3
:10522000FFF87FFFFFF8780780F8780780F87807A5
:1052300080F8780780F8780780F8780780F87FFF93
:10524000FFF87FFFFFF87807800E7807800F0007D0
:10525000800F0007800F0007801F0007801E0003DB
:10526000FFFE0001FFFC0000000000000000000045
:10527000000000000000000000000000D7D3000084
:10528000000000000000000000000000000000001E
:1052900000000000000000000000000000001FFFF0
:1052A000FFF81FFFFFF8000001F8000007E0000012
:1052B0000FC000001F8000003E000000FC00000145
:1052C000F8000003E0000003E0000003E000FFFF3F
:1052D000FFFFFFFFFFFF0003E0000003E00000030B
:1052E000E0000003E0000003E0000003E000000332
:1052F000E0000003E0000003E0000003E000000322
:10530000E0000003C00001FFC00000FF80000000BB
:10531000000000000000000000000000000000008D
:10532000000000004465627567203A205061696E94
:10533000745F44726177537472696E675F454E2083
:10534000496E707574206578636565647320746850
:1053500065206E6F726D616C20646973706C617929
:105360002072616E67650D0A000000004465627579
:1053700067203A205061696E745F447261774369B7
:1053800072636C6520496E7075742065786365651D
:10539000647320746865206E6F726D616C2064693F
:1053A00073706C61792072616E67650D0A00000090
:1053B0004465627567203A205061696E745F44727B
:1053C0006177506F696E7420496E707574206578CE
:1053D000636565647320746865206E6F726D616CBF
:1053E00020646973706C61792072616E67650D0A63
:1053F00000000000145400080000002028000000F5
:10540000482300083C54000828000020F004000055
:1054100058230008010000001000000000000000F8
:105420000024F400B4260008110018006C410008A4
:0C5430001B0018002000290000000000F4
:04000005080000ED02
:00000001FF
